{
  "contractName": "Item",
  "abi": [
    {
      "inputs": [
        {
          "internalType": "contract ItemManager",
          "name": "_parentContract",
          "type": "address"
        },
        {
          "internalType": "uint256",
          "name": "_priceInWei",
          "type": "uint256"
        },
        {
          "internalType": "uint256",
          "name": "_index",
          "type": "uint256"
        }
      ],
      "payable": false,
      "stateMutability": "nonpayable",
      "type": "constructor"
    },
    {
      "payable": true,
      "stateMutability": "payable",
      "type": "fallback"
    },
    {
      "constant": true,
      "inputs": [],
      "name": "index",
      "outputs": [
        {
          "internalType": "uint256",
          "name": "",
          "type": "uint256"
        }
      ],
      "payable": false,
      "stateMutability": "view",
      "type": "function"
    },
    {
      "constant": true,
      "inputs": [],
      "name": "paidWei",
      "outputs": [
        {
          "internalType": "uint256",
          "name": "",
          "type": "uint256"
        }
      ],
      "payable": false,
      "stateMutability": "view",
      "type": "function"
    },
    {
      "constant": true,
      "inputs": [],
      "name": "priceInWei",
      "outputs": [
        {
          "internalType": "uint256",
          "name": "",
          "type": "uint256"
        }
      ],
      "payable": false,
      "stateMutability": "view",
      "type": "function"
    }
  ],
  "bytecode": "0x608060405234801561001057600080fd5b506040516104983803806104988339818101604052606081101561003357600080fd5b81019080805190602001909291908051906020019092919080519060200190929190505050816000819055508060028190555082600360006101000a81548173ffffffffffffffffffffffffffffffffffffffff021916908373ffffffffffffffffffffffffffffffffffffffff1602179055505050506103df806100b96000396000f3fe6080604052600436106100345760003560e01c80632986c0e5146102f65780633c8da5881461032157806383d12eef1461034c575b600054341461008e576040517f08c379a000000000000000000000000000000000000000000000000000000000815260040180806020018281038252602181526020018061038a6021913960400191505060405180910390fd5b600060015414610106576040517f08c379a00000000000000000000000000000000000000000000000000000000081526004018080602001828103825260158152602001807f4974656d20697320616c7265616479207061696421000000000000000000000081525060200191505060405180910390fd5b346001600082825401925050819055506000600360009054906101000a900473ffffffffffffffffffffffffffffffffffffffff1673ffffffffffffffffffffffffffffffffffffffff1634600254604051602401808281526020019150506040516020818303038152906040527f800fb83f000000000000000000000000000000000000000000000000000000007bffffffffffffffffffffffffffffffffffffffffffffffffffffffff19166020820180517bffffffffffffffffffffffffffffffffffffffffffffffffffffffff83818316178352505050506040518082805190602001908083835b6020831061021557805182526020820191506020810190506020830392506101f2565b6001836020036101000a03801982511681845116808217855250505050505090500191505060006040518083038185875af1925050503d8060008114610277576040519150601f19603f3d011682016040523d82523d6000602084013e61027c565b606091505b50509050806102f3576040517f08c379a00000000000000000000000000000000000000000000000000000000081526004018080602001828103825260158152602001807f44656c697665727920646964206e6f7420776f726b000000000000000000000081525060200191505060405180910390fd5b50005b34801561030257600080fd5b5061030b610377565b6040518082815260200191505060405180910390f35b34801561032d57600080fd5b5061033661037d565b6040518082815260200191505060405180910390f35b34801561035857600080fd5b50610361610383565b6040518082815260200191505060405180910390f35b60025481565b60005481565b6001548156fe576520646f6e277420737570706f7274207061727469616c207061796d656e7473a265627a7a72315820353c23f2f07d5ff8e235faa7cbb12d1cf19e508f848fb9144a985560fa4f547464736f6c63430005110032",
  "source": "pragma solidity ^0.5.0;\n\nimport \"./ItemManager.sol\";\n\ncontract Item {\n    uint public priceInWei; uint public paidWei; uint public index;\n    ItemManager parentContract;\n    constructor(ItemManager _parentContract, uint _priceInWei, uint _index) public { priceInWei = _priceInWei;\n        index = _index;\n        parentContract = _parentContract;\n    }\n\n    function() external payable {\n        require(msg.value == priceInWei, \"We don't support partial payments\"); require(paidWei == 0, \"Item is already paid!\");\n        paidWei += msg.value;\n        (bool success, ) = address(parentContract).call.value(msg.value)(abi.encodeWithSignature(\"triggerPayment(uint256)\", index)); require(success, \"Delivery did not work\");\n    }\n\n}\n\n//pragma solidity ^0.6.0;\n//\n//import \"./ItemManager.sol\";\n//\n//contract Item {\n//\n//    uint public priceInWei;                 // price of an item\n//    uint public paidWei;                    // amount that's been paid for the item so far\n//    uint public index;                      // uniquely identifying number for the item\n//\n//    ItemManager parentContract;             // instance of ItemManager to access its methods\n//\n//    // called once when the smart contract is first created on the blockchain\n//    constructor(ItemManager _parentContract, uint _priceInWei, uint _index) public { // calls all of the initialized variables above, and adds them to the item\n//        priceInWei = _priceInWei;               // defines the item's price\n//        index = _index;                         // defines the item's unique indentifier number\n//        parentContract = _parentContract;       // defines the methods that can be used on the item\n//    }\n//\n//receive() external payable {                                                        // fallback receive() function which can receive money\n//require(msg.value == priceInWei, \"We don't support partial payments\");          // requires that the payment offered is the full amount\n//require(paidWei == 0, \"Item is already paid!\");                                 // requires that the item hasn't already been paid for\n//paidWei += msg.value;                                                           // adds the amount of money in the recieved to the amount that's been paid so far\n//\n//// call to\n//(bool success, ) = address(parentContract).call.value(msg.value)(abi.encodeWithSignature(\"triggerPayment(uint256)\", index));    // returns true if the low-level transaction is successful\n//require(success, \"Delivery did not work\");\n//}\n//\n//fallback () external { }\n//\n//}",
  "sourcePath": "/Users/drakemacbook2/Documents/Programming/blockchain-projects/project1/contracts/Item.sol",
  "compiler": {
    "name": "solc",
    "version": "0.5.17+commit.d19bba13.Emscripten.clang"
  },
  "schemaVersion": "3.2.2",
  "updatedAt": "2020-07-18T13:36:27.291Z",
  "devdoc": {
    "methods": {}
  },
  "userdoc": {
    "methods": {}
  }
}