{
  "contractName": "Ownable",
  "abi": [
    {
      "inputs": [],
      "payable": false,
      "stateMutability": "nonpayable",
      "type": "constructor"
    },
    {
      "constant": true,
      "inputs": [],
      "name": "isOwner",
      "outputs": [
        {
          "internalType": "bool",
          "name": "",
          "type": "bool"
        }
      ],
      "payable": false,
      "stateMutability": "view",
      "type": "function"
    }
  ],
  "bytecode": "0x6080604052348015600f57600080fd5b50336000806101000a81548173ffffffffffffffffffffffffffffffffffffffff021916908373ffffffffffffffffffffffffffffffffffffffff16021790555060d98061005e6000396000f3fe6080604052348015600f57600080fd5b506004361060285760003560e01c80638f32d59b14602d575b600080fd5b6033604d565b604051808215151515815260200191505060405180910390f35b60008060009054906101000a900473ffffffffffffffffffffffffffffffffffffffff1673ffffffffffffffffffffffffffffffffffffffff163373ffffffffffffffffffffffffffffffffffffffff161490509056fea265627a7a72315820cc4ea3965e59cbbff284667756bb2e75173b088a121e8f2ad62c7a75611803fe64736f6c63430005110032",
  "source": "pragma solidity ^0.5.0;\n\ncontract Ownable {\n\n    address payable _owner;\n\n    constructor() public {\n        _owner = msg.sender;\n    }\n\n    modifier onlyOwner() {\n        require(isOwner(), \"You are not the owner\");\n        _;\n    }\n\n    function isOwner() public view returns(bool) {\n        return (msg.sender == _owner);\n    }\n}",
  "sourcePath": "/Users/drakemacbook2/Documents/Programming/blockchain-projects/project1/contracts/Ownable.sol",
  "compiler": {
    "name": "solc",
    "version": "0.5.17+commit.d19bba13.Emscripten.clang"
  },
  "schemaVersion": "3.2.2",
  "updatedAt": "2020-07-26T07:48:05.635Z",
  "networkType": "ethereum",
  "devdoc": {
    "methods": {}
  },
  "userdoc": {
    "methods": {}
  }
}